:020000040000FA
:10000000200500106901000071010000730100006B
:100010007501000077010000790100000000000078
:100020000000000000000000000000007B01000054
:100030007D010000000000007F0100008101000040
:1000400083010000830100008301000083010000A0
:100050008301000083010000830100008301000090
:100060008301000083010000830100008301000080
:100070008301000083010000830100008301000070
:100080008301000083010000830100008301000060
:100090008301000083010000830100008301000050
:1000A0008301000083010000830100008301000040
:1000B00005060000D10500009D0500006F05000049
:1000C00000F002F800F040F80CA030C808382418FE
:1000D0002D18A246671EAB4654465D46AC4201D180
:1000E00000F032F87E460F3E0FCCB6460126334272
:1000F00000D0FB1AA246AB463343184798180000BD
:10010000B8180000103A02D378C878C1FAD852075C
:1001100001D330C830C101D504680C6070470000BD
:100120000023002400250026103A01D378C1FBD813
:10013000520700D330C100D50B6070471FB5C046D1
:10014000C0461FBD10B510BD01F0E4FB1146FFF71E
:10015000F5FF01F007FB01F0FCFB03B4FFF7F2FF32
:1001600003BC01F001FC0000094880470948004732
:10017000FEE7FEE7FEE7FEE7FEE7FEE7FEE7FEE757
:10018000FEE7FEE704480549054A064B70470000B4
:100190002B030000C100000020010010200500100A
:1001A000200300102003001010B500248348406A8B
:1001B000C005030F01F0DFFB10090B0D0F11131524
:1001C00017191B1D1F21232527297D4C1DE07D4C60
:1001D0001BE07D4C19E07D4C17E07D4C15E07D4C1B
:1001E00013E07D4C11E07D4C0FE07D4C0DE07D4C2B
:1001F0000BE07D4C09E07D4C07E07D4C05E07D4C3B
:1002000003E07D4C01E07D4C00BF00BF6B48406ABD
:10021000C006800E811C204601F0CCFA04467848C6
:10022000006B8007800F06D0012808D0022823D059
:10023000032870D123E07348734908606BE070486D
:1002400000688007800F06D0012808D002280AD055
:1002500003280FD10AE06B486B4908600AE069483F
:100260006949086006E06848046003E000206649C8
:10027000086000BF00BF4EE0634804604BE0604888
:1002800000688007800F06D0012818D002282AD0E5
:1002900003283ED139E049488068FF218131084276
:1002A00003D058485849086008E044488068C006B0
:1002B000C00E401C534948435349086029E03F4859
:1002C0008068FF218131084203D04E484E490860C2
:1002D00008E03A488068C006C00E401C49494843BF
:1002E0004949086015E035488068FF21813108429E
:1002F00002D04548046007E030488068C006C00E60
:10030000401C60434049086003E000203E4908600B
:1003100000BF00BF00BF00BF3948816B3A4800688A
:1003200001F048FA3849086010BD10B53748806BB5
:100330002021884335498863002020490862002431
:1003400001E000BF641CC82CFBD301202C490860CD
:100350004860002048600120486000BF284840688D
:10036000C007C00FFAD00320144988602748806B6B
:10037000802188432549886300BF1048C068C007B2
:10038000C00FFAD003201E490863012048630020F3
:1003900048630120486300BF1948406BC007C00F85
:1003A000FAD001201649886319481A4908600120CB
:1003B00048618861C861FFF7F7FE10BD0080044006
:1003C000801A060020A1070000350C00E0C81000CC
:1003D000C05C1500006A180040771B0080841E0076
:1003E000C0912100009F240040AC2700E03229008A
:1003F00020402C00604D2F0000D4300040E133003D
:1004000040800440001BB700000000100082044040
:100410005F0001008080044010B5012203210846DE
:1004200000F0F6F801220321084600F060F910BD43
:1004300010B501220321084600F0EAF8002203214A
:10044000084600F054F910BD0146002005E00020E8
:1004500000E0401C034A9042FBD30A46491E002A92
:10046000F5D170478813000010B5F94800684021A5
:100470000843F74908601F2000F075FA1E2000F0BD
:1004800072FA1D2000F06FFA1C2000F06CFA0120B7
:10049000F049087010BD70B505460C46ED4800786F
:1004A000002801D1FFF7E0FF002D06D0012D0CD070
:1004B000022D12D0032D20D117E0E748C069012199
:1004C000A1400843E449C86118E0E448C06901213B
:1004D000A1400843E149C86110E0E148C069012139
:1004E000A1400843DE49C86108E0DE48C069012137
:1004F000A1400843DB49C86100E000BF00BF70BDF8
:1005000070B505460C460026D2480078002801D177
:10051000FFF7AAFF002D06D0012D0CD0022D12D01E
:10052000032D20D117E0CC4880690121A140084269
:1005300000D0012618E0C94880690121A140084285
:1005400000D0012610E0C64880690121A140084280
:1005500000D0012608E0C34880690121A14008427B
:1005600000D0012600E000BF00BF304670BD10B5CE
:10057000BD480068401CBC4908600B210020FFF703
:10058000BFFF0446002C08D0B8480068401CB7499B
:1005900008600B210020FFF77EFF10BD10B5B448A6
:1005A0000068401CB249086008210120FFF7A8FF3D
:1005B0000446002C0BD0AF480068401CAD490860D1
:1005C000012000F015FE08210120FFF764FF10BD97
:1005D00010B5A9480068401CA74908600421022002
:1005E000FFF78EFF0446002C0BD0A4480068401C87
:1005F000A2490860002000F0FBFD04210220FFF763
:100600004AFF10BD9E480068401C9D490860704725
:10061000F8B506460D46174600248E480078002897
:1006200001D1FFF721FF8C4C002E06D0012E06D001
:10063000022E06D0032E08D105E0874C05E0874C3A
:1006400003E0874C01E0874C00BF00BF012F05D1BC
:1006500020680121A9400843206004E020680121AE
:10066000A94088432060F8BD70B505460C460026B9
:1006700078480078002801D1FFF7F6FE002D06D05B
:10068000012D0FD0022D18D0032D2CD120E07D4854
:10069000C06B0121A140084201D0012000E00020F0
:1006A000064621E07848C06B0121A140084201D0F4
:1006B000012000E00020064616E07448C06B0121CE
:1006C000A140084201D0012000E0002006460BE0D6
:1006D0006F48C06B0121A140084201D0012000E019
:1006E0000020064600E000BF00BF304670BDF8B5F0
:1006F00006460D461746002456480078002801D1CA
:10070000FFF7B2FE634C002E06D0012E06D0022E5B
:1007100006D0032E08D105E05E4C05E05E4C03E0F8
:100720005E4C01E05E4C00BF00BF012F05D1206888
:100730000121A9400843206004E020680121A9406C
:1007400088432060F8BDFFB581B00C46554D564E2C
:10075000564F40480078002801D1FFF785FE0198E8
:10076000002806D0012808D002280AD0032810D17A
:100770000BE04C4D4C4E4D4F0BE04D4D4D4E4E4F02
:1007800007E04E4D4E4E4F4F03E04F4D4F4E504FF2
:1007900000BF00BF0398002813D128680121A140A1
:1007A000884328600498002805D130680121A140C1
:1007B000884330600AE030680121A140084330607E
:1007C00004E028680121A140084328600A98002815
:1007D00005D138680121A1408843386004E03868B9
:1007E0000121A1400843386005B0F0BD70B5054651
:1007F0000C4618480078002801D1FFF735FE002D7F
:1008000006D0012D0CD0022D12D0032D62D117E09D
:10081000114800690121A14008430F4908615AE0CD
:100820000E4800690121A14008430C49086152E0CB
:100830000B4800690121A1400843094908614AE0C9
:10084000084800690121A14008430649086142E0C7
:10085000808004402400001000800050008001507F
:1008600000800250008003500400001014000010AB
:1008700008000010180000100C0000101C000010F0
:1008800010000010C03F0050C03F0150C03F025058
:10089000C03F0350FC3F0050FC3F0150FC3F025062
:1008A000FC3F035004800050088000500C80005032
:1008B00004800150088001500C80015004800250D7
:1008C000088002500C8002500480035008800350BE
:1008D0000C80035000BF00BF70BD70B505460C46CC
:1008E00024480078002801D1FFF7BEFD002D06D076
:1008F000012D0CD0022D12D0032D20D117E01E485F
:1009000000690121A14088431B49086118E01B4888
:1009100000690121A14088431849086110E0184886
:1009200000690121A14088431549086108E0154884
:1009300000690121A14088431249086100E000BF1D
:1009400000BF70BD70B504460D460A480078002807
:1009500001D1FFF789FD20681821884320602068B5
:100960002843206070BDC206D20E01219140064A84
:10097000116070472400001000800050008001507A
:10098000008002500080035000E100E0810004E09C
:1009900000BF00BF00BF00BF491E0029F8D170474B
:1009A00000B50A20FFF7F2FF00BD70B5044600262F
:1009B00023E0802025460540002D05D0012202219C
:1009C0000320FFF794FE04E0002202210320FFF73A
:1009D0008EFE6006040E00220B210120FFF787FE29
:1009E0000120FFF7D3FF01220B211046FFF77FFE06
:1009F0000120FFF7CBFF701CC6B2082ED9DB70BDFB
:100A0000F8B50446F82500220B210120FFF76FFE00
:100A1000012205211046FFF76AFE2846FFF7C5FFB1
:100A20002546F02005402846FFF7BFFF2546F02069
:100A3000284006462F073F0F36113F013046384306
:100A400005462846F021084005462846FFF7ADFF39
:100A500000220B210120FFF74AFE00220521012080
:100A6000FFF745FEF8BDF8B50446FA2500220B2134
:100A70000120FFF73CFE012205211046FFF737FE5B
:100A80002846FFF792FF2546F02005402846FFF74D
:100A90008CFF2546F020284006462F073F0F3611D1
:100AA0003F013046384305462846F02108400546B8
:100AB0002846FFF77AFF00220B210120FFF717FEDF
:100AC000002205210120FFF712FEF8BD10B5FF48F6
:100AD000006AC008C000FD4908620846006A086252
:100AE000012205211046FFF793FD1021F748203021
:100AF000FFF728FFF5484069C008C000F349486186
:100B0000084640694861012204211046FFF780FD34
:100B10001021EE481430FFF715FFEC48C069C008FB
:100B2000C000EA49C8610846C069C86101220221C3
:100B30000320FFF76DFD1021E4481C30FFF702FF92
:100B4000E2488069C008C000E049886108468069C1
:100B5000886101220B211046FFF75AFD1021DB4866
:100B60001830FFF7EFFE002204210120FFF7BFFD40
:100B70006420FFF769FC012204211046FFF7B7FD4E
:100B800000220B210120FFF7B2FD002202210320E9
:100B9000FFF7ADFD002205210120FFF7A8FD10BDE4
:100BA00010B5FFF793FF30242046FFF729FF64209C
:100BB000FFF7ECFE01242046FFF722FF6420FFF739
:100BC00043FC06242046FFF71BFF0C242046FFF7BA
:100BD00017FF80242046FFF713FF10BD00240025D7
:100BE000142635E080273846FFF70AFF0025002449
:100BF00007E028010019B6490F5C3846FFF733FFBC
:100C0000641C102CF5DB761E90273846FFF7F8FEA3
:100C100041273846FFF727FF98273846FFF7F0FEB1
:100C2000AB4807783846FFF71EFFA9484778384693
:100C3000FFF719FF88273846FFF7E2FEA4488778B8
:100C40003846FFF710FFA248C7783846FFF70BFF7A
:100C5000C8E770B506460C4600220B210120FFF7BD
:100C600046FD012205211046FFF741FD002E01D06F
:100C7000FA2500E0F8252846FFF797FE2046F021E8
:100C8000084005462846FFF790FE2001F021084065
:100C900005462846FFF789FE00220B210120FFF7B9
:100CA00026FD002205210120FFF721FD70BD10B5B2
:100CB00030210020FFF7CDFF01210020FFF7C9FF01
:100CC0000A20FFF7C1FB10BD10B5044630210020FB
:100CD000FFF7BFFF21460020FFF7BBFF10BD014615
:100CE000002000E0401C0B78491C002BFAD1704713
:100CF000F7B50746154601988007800F01907F07DA
:100D00007F0F0198002806D0012806D0022806D0BF
:100D1000032808D105E0802405E0902403E088241E
:100D200001E0982400BF00BFE019C4B22846FFF7D5
:100D3000D6FFC6B230210020FFF78BFF2046FFF719
:100D4000C3FF06E029786D1C0120FFF782FF701EAB
:100D5000C6B2002EF6D1FEBD70B506460C46204642
:100D6000FFF7BDFFC5B230210020FFF772FF30460C
:100D7000FFF7AAFF06E02178641C0120FFF769FF56
:100D8000681EC5B2002DF6D170BDFEB504460F46F3
:100D90001646BF07BF0F2407240F002F06D0012FD0
:100DA00006D0022F06D0032F08D105E0802505E0EC
:100DB000902503E0882501E0982500BF00BF20466C
:100DC000E10F091849104919CDB2E007C00F019091
:100DD0003046FFF784FFC0B2029030210020FFF7B9
:100DE00038FF2846FFF770FF0198012808D120201E
:100DF00000902846FFF768FF01200099FFF729FFC0
:100E000008E03178761C0120FFF723FF0298401E8E
:100E1000C0B2029002980028F3D1FEBDF7B584B0AD
:100E20001746002001900290039000260024002520
:100E300000BF17E01C20011B3846C84005072D0FD6
:100E40000A2D07DA28463030C2B23046761C01A996
:100E50000A5406E028463730C2B23046761C01A953
:100E60000A54241D202CE5DB01AA05990498FFF7FC
:100E70008CFF07B0F0BDF7B584B0074614460020DC
:100E80000190029003906421204600F09DFC0546ED
:100E900064206843201AC4B20A21204600F094FC62
:100EA00006460A207043201A009000983030C1B2E4
:100EB0006846817130463030C1B26846417128467B
:100EC0003030C1B26846017101AA03E0804004409D
:100ED0002500001038460599FFF757FF07B0F0BD11
:100EE00010B5044634210020FFF7B3FE0321002093
:100EF000FFF7AFFE20014030C1B20020FFF7A9FE8E
:100F000010BD10B5044634210020FFF7A2FE214693
:100F10000020FFF79EFE10BD10B5044634210020CE
:100F2000FFF797FE002C04D036210020FFF791FE3A
:100F300003E034210020FFF78CFE10BD70B50020C7
:100F4000FFF7EAFF00251BE0002415E0284680306B
:100F5000C1B20020FFF77DFE20468030C1B20020E4
:100F6000FFF777FE00210120FFF773FE002101202B
:100F7000FFF76FFE601CC4B2082CE7DB681CC5B22B
:100F8000202DE1DB20251BE0002415E02846603001
:100F9000C1B20020FFF75DFE20468830C1B20020BC
:100FA000FFF757FE00210120FFF753FE002101202B
:100FB000FFF74FFE601CC4B2082CE7DB681CC5B20B
:100FC000402DE1DB0120FFF7A7FF70BD70B506469D
:100FD0000020FFF7A1FF002522E000241CE02846A6
:100FE0008030C1B20020FFF734FE20468030C1B20D
:100FF0000020FFF72EFE280162008018315C0120DE
:10100000FFF727FE280162008018401C315C012098
:10101000FFF71FFE601CC4B2082CE0DB681CC5B2E1
:10102000202DDADB202522E000241CE02846603059
:10103000C1B20020FFF70DFE20468830C1B200206B
:10104000FFF707FE280162008018315C0120FFF7DE
:1010500000FE280162008018401C315C0120FFF76F
:10106000F8FD601CC4B2082CE0DB681CC5B2402D42
:10107000DADB0120FFF750FF70BDF8B506460F46DA
:1010800015460020FFF748FF34210020FFF7E1FD5F
:10109000002417E0394680310919C8B2FFF731FF43
:1010A00031468031C8B2FFF72CFF6000295C012077
:1010B000FFF7CFFD6000401C295C0120FFF7C9FD50
:1010C000601CC4B2102CE5DB0120FFF725FFF8BD42
:1010D00010B5012207210220FFF79AFA002207210A
:1010E0000220FFF704FB10BD10B5012207210220EA
:1010F000FFF78EFA012207210220FFF7F8FA10BD50
:1011000010B5012211460320FFF782FA00220121C7
:101110000320FFF7ECFA10BD10B5012211460320A1
:10112000FFF776FA012211460320FFF7E0FA10BD1F
:1011300010B5012200210320FFF76AFA00221146B0
:101140000320FFF7D4FA10BD10B5012200210320BF
:10115000FFF75EFA012200210320FFF7C8FA10BD55
:1011600010B5012202211046FFF752FA0022022197
:101170000120FFF7BCFA10BD10B501220221104674
:10118000FFF746FA012202211046FFF7B0FA10BD20
:1011900010B5012211461046FFF73AFA002201214C
:1011A0000846FFF7A4FA10BD10B5012211461046FB
:1011B000FFF72EFA012211461046FFF798FA10BDEC
:1011C00010B5012208210220FFF722FA002208218F
:1011D0000220FFF78CFA10BD10B501220821022071
:1011E000FFF716FA012208210220FFF780FA10BD4E
:1011F00070B5044604210320FFF736FA0546002D9A
:1012000026D1DC480068222800DD70BDD94A10686C
:10121000C217520F1218D210D74B9A5CD54B1968CF
:10122000CB175B0F5B18DB10DB00CB1A0726F61A17
:101230002346B3401A43CF4B1868C3175B0F1B18E4
:10124000DB10CD4EF254CB480068401CC949086001
:1012500000BFDAE708B5C9480068C008C000C74940
:101260000860084600680860012206210220FFF796
:10127000CFF9012206210220FFF739FABF4840309A
:101280000068C008C000BE490860084600680860E1
:10129000002204210220FFF7BBF90021B848FFF724
:1012A00051FB002003460246042100900220FFF774
:1012B0004AFAB2484069C008C000B04948610846CF
:1012C00040694861002208210120FFF7A1F90021AF
:1012D000AA481430FFF736FB0020034602460821D7
:1012E00000900120FFF72FFA04210220FFF7D3F826
:1012F00004210220FFF77AFA08210120FFF7CBF83A
:1013000008210120FFF772FA9C48C06BC008C0009A
:101310009A49C8630846C06BC863002204210320B1
:10132000FFF776F900219648001FFFF70BFB08BD79
:1013300010B5002206210220FFF7D9F910219048AC
:10134000FFF700FB10218D481430FFF7FBFA102146
:101350008B48001FFFF7F6FA10BD10B50021884832
:10136000FFF7F0FA002185481430FFF7EBFA00216F
:101370008348001FFFF7E6FA012206210220FFF74B
:1013800047F9012206210220FFF7B1F910BD70B51F
:101390000146002400250022002308784E78704082
:1013A0008E78F61170400446082200BF05E0E00781
:1013B000C00F00D05B1C6410521E002A01DD002CFF
:1013C000F5D1D807C00F00D170BDC8780E79704034
:1013D0008E7876007040C5B20822002305E0E80749
:1013E000C00F00D05B1C6D10521E002A01DD002DC5
:1013F000F5D1D807C00F01D00020E5E70020614EED
:101400003060087840004E78F61130435D4E366803
:1014100030435C4E3060487840008E78F61130439F
:10142000584E366836023043564E30608878400059
:10143000CE78F6113043534E366836023043514E63
:101440003060C87840000E79F61130434D4E366852
:10145000360230434B4E306030460068B4E710B57A
:10146000FEF7DAFFFFF764FE6420FEF7EDFFFEF7FC
:10147000DFFFFFF769FE44A202210020FFF738FCDE
:101480004048032102680020FFF7C8FC10BDF0B5FA
:1014900003460E060F043E430F023E430E433546FD
:1014A0009E07B60F06D1042A04D301E020C3121F01
:1014B000042AFBD21C4601E02170641C1646521E11
:1014C000002EF9D1F0BDFFF7C5FEFFF731FF20E098
:1014D0002848006822281CDB2748FFF758FFFFF741
:1014E000BEFF7D20C000FEF7AFFFFFF7E0FB2AA2A2
:1014F00000210846FFF7FCFB2CA201210020FFF78A
:10150000F7FB052200211C48FFF7C1FF0020194905
:101510000860DDE7FFF79EFEFFF70AFF28E00421E1
:101520000320FFF7A1F82449086008460068002856
:101530001ED122A20121FFF7DBFBFEF76DFFFFF7B3
:10154000F7FD6420FEF780FFFEF772FFFFF7FCFD5A
:10155000FF20F530FEF778FFFFF7A9FB0EA2002170
:101560000846FFF7C5FB11A201210020FFF7C0FBD1
:10157000D5E70000B4000010A800001000400440AF
:1015800040400440B0000010D2D1CBA2BFA8A3AC11
:101590004944BAC53A202000BBB6D3ADCAB9D3C3BB
:1015A000C3C5BDFBCFB5CDB300000000C7EBCBA2D8
:1015B000BFA8202000000000B8000010D2D1CBA2AC
:1015C000BFA820200000000010B55E480068C008D9
:1015D000C0005C4908600846006801210843594979
:1015E00008605948C06BC008C0005749C863084626
:1015F000C06B012108435449C86308464069C008CC
:10160000C000486108464069486101220921022062
:10161000FEF7FEFF012209210220FFF768F84A4881
:1016200040380068C008C0004849086008460068A3
:101630000860012206210220FEF7EAFF01220621AE
:101640000220FFF754F84148C06AC008C0003F4973
:10165000C8620846C06AC862012203210020FEF762
:10166000D7FF012203210020FFF741F810BD384ABF
:10167000926B20239A43364B9A630022354B1A62B1
:10168000002101E000BF491CC829FBD30122324BD5
:101690001A605A6000225A6001225A6000BF2E4A26
:1016A0005268D207D20FFAD0002806D0012808D0FD
:1016B00002280AD003280CD10CE02122254B9A6085
:1016C0000CE02222234B9A6008E02322214B9A60EF
:1016D00004E000BF20221F4B9A6000BF00BF1C4ADD
:1016E000926B80239A431A4B9A6300BF194AD268BF
:1016F000D207D20FFAD00322174B1A6301225A6382
:1017000000225A6301225A6300BF134A526BD20768
:10171000D20FFAD00122104B9A63104A1268104B74
:101720001A430E4B1A60704710B5FEF79DFEFFF787
:101730004BFF0320FFF79BFF002207211046FEF717
:1017400067FF10BD8040044040400440004004401A
:1017500000820440008004404080044080800440B7
:101760000000010010B5FFF7DFFFFEF761FEFFF795
:1017700017FAFFF79CFA07A200210846FFF7B8FA0C
:1017800009A201210020FFF7B3FAFFF7C3FE0020F2
:1017900010BD0000BBB6D3ADCAB9D3C3C3C5BDFB32
:1017A000CFB5CDB300000000C7EBCBA2BFA820206F
:1017B00000000000002203098B422CD3030A8B4255
:1017C00011D300239C464EE003460B433CD4002239
:1017D00043088B4231D303098B421CD3030A8B424B
:1017E00001D394463FE0C3098B4201D3CB01C01A19
:1017F000524183098B4201D38B01C01A52414309E4
:101800008B4201D34B01C01A524103098B4201D3D1
:101810000B01C01A5241C3088B4201D3CB00C01A3E
:10182000524183088B4201D38B00C01A52414308B6
:101830008B4201D34B00C01A5241411A00D20146DB
:101840005241104670475DE0CA0F00D04942031074
:1018500000D34042534000229C4603098B422DD3C3
:10186000030A8B4212D3FC22890112BA030A8B426B
:101870000CD3890192118B4208D3890192118B42BA
:1018800004D389013AD0921100E08909C3098B423F
:1018900001D3CB01C01A524183098B4201D38B0182
:1018A000C01A524143098B4201D34B01C01A524125
:1018B00003098B4201D30B01C01A5241C3088B426A
:1018C00001D3CB00C01A524183088B4201D38B0055
:1018D000C01A5241D9D243088B4201D34B00C01ADF
:1018E0005241411A00D20146634652415B101046F4
:1018F00001D34042002B00D54942704763465B103C
:1019000000D3404201B50020C046C04602BD70472A
:1019100070477047754600F023F8AE4605006946EB
:101920005346C008C000854618B020B5FEF72AFC13
:1019300060BC00274908B6460026C0C5C0C5C0C562
:10194000C0C5C0C5C0C5C0C5C0C5403D49008D4665
:1019500070470446C046C0462046FEF7FEFB000026
:1019600000487047BC00001001491820ABBEFEE7DC
:1019700026000200704730B47446641E2578641C4B
:10198000AB4204D3635D5B00E31830BC18471D46CF
:10199000F8E70000B419000000000010BC000000CF
:1019A00004010000701A0000BC0000106404000074
:1019B00020010000006CDC020000000000000000BC
:1019C0000000000000000000000000000000000017
:1019D000000000000000000000B1BECFB5C1D0D6AD
:1019E000D0CEC4C4A3BFE9C4DAC8CED2E2CEBBD63F
:1019F000C3B7B4B0D7CFD4CABED6C3B6FEBCB6D771
:101A0000D6BFE2A3ACBFC9D4DACAB9D3C3B8FCB756
:101A1000BDB1E3B8FCC1E9BBEE00476F6C64656E15
:101A20002050616C6D2054454331476F6C64656E86
:101A30002050616C6D2054454332476F6C64656E75
:101A40002050616C6D2054454333476F6C64656E64
:101A50002050616C6D2054454334000000000000AC
:101A60000000000000000000000000000100000075
:04000005000001698D
:00000001FF
